:020000040800F2
:1000000038110020D5000008694E0008D93C0008CE
:1000100000000000000000000000000000000000E0
:100020000000000000000000000000008B6F0008CE
:1000300000000000000000002D5900081189000890
:10004000E7000008E7000008CB5F0008E7000008B1
:10005000E7000008B5100008C5100008D51000081A
:10006000E7000008E7000008E7000008E7000008D4
:10007000E7000008E7000008E7000008E7000008C4
:10008000E7000008E7000008E700000800000000A3
:10009000E7000008E7000008E7000008E7000008A4
:1000A000E7000008E7000008E7000008E700000894
:1000B000DD900008E700000800000000E7000008ED
:1000C0000348854600F0C4FC00480047899D0008AD
:1000D000381100200448804704480047FEE7FEE747
:1000E000FEE7FEE7FEE7FEE7CD890008C100000855
:1000F00030B50B46014600202022012409E00D46C0
:10010000D5409D4205D31D469540491B2546954047
:1001100040191546521E002DF1DC30BD70B500248B
:100120002546002801DA01244042002901DA012590
:100130004942FFF7DDFFAC4200D04042002C00D026
:10014000494270BDF0B51FB40646002082B0054696
:100150004024019100901BE0019922460F46304651
:1001600000F060FB049A059B801A994110D3104659
:100170001946224600F046FB361A8F410197224667
:1001800001200021009F00F03DFB38184D410090F8
:100190002046641E0028DFDC019B00982946324679
:1001A00007B0F0BD03460B439B0703D009E008C925
:1001B000121F08C0042AFAD203E00B780370401C17
:1001C000491C521EF9D27047D2B201E00270401CA5
:1001D000491EFBD270470022F6E710B513460A46C7
:1001E00004461946FFF7F0FF204610BD0321001D0D
:1001F000401E037812021A43491EF9D51046704773
:10020000F8B502464A40D40F42004B0052085B0842
:100210009A4202D20246084611464A0023D0C30D34
:100220004A00DDB2120EAD1A202D35DA4902012640
:10023000490AF6058A19002C00D0524220214F1B92
:100240001146B9402A411018C20D9A4221D0002C03
:1002500017D0012D08DCDA05801AD20F8019D207D9
:10026000DBB200F00BFBF8BDDA05801A0123400079
:100270001B06C01880185A428018CA0F1043490044
:1002800007E04908C2071143DA05801A80194008BF
:10029000801800F0EBFAF8BD61000122511A001B32
:1002A000F7E70122D2075140AAE70122D2075040C6
:1002B000A6E7024670B54A40D30FDB0740002DD0B9
:1002C0004A002AD0010E140E000212020919400A37
:1002D000520A8418E50104465443000A120A2E0407
:1002E0005043A4194219200CC543AA18120C012529
:1002F000AD03521C521912047F39240400D0521C41
:10030000104301D44000491EC2B20C06C009201897
:10031000401C4008802A02D003E0002070BD400845
:100320004000002900DA0020184370BDF0B50746F0
:100330000846584087B0C00F049048000E46590048
:1003400040084908BC1A884105D2384631461E4645
:1003500017460B4602465800400810434CD0300D5B
:10036000039040055900400D490D0590401A029038
:10037000402872DA18030121000B09050843019097
:1003800004980092002805D001995242002088412B
:1003900000920190029840210A1A0199009800F0F9
:1003A00031FA05460C466B4607CB00F04CFAC019F3
:1003B0007141039A0E0D0023D71756401A467A4012
:1003C000164344D0049A002A2DD0029A012A039A97
:1003D00015DC1205C01A914101263605001C714139
:1003E000D20F059ED2070093019202962A46234619
:1003F00000F08AFA07B0F0BD38463146FAE7160534
:10040000224A0F46B218C01AB74101210905001C43
:100410004F4100187F41114618187941E20F1043EF
:100420006D19644113E0E2076D0815436408C207C3
:100430001443039A01261205C01A91413605001C87
:100440007141CE07400830434908C01851412A463F
:10045000234600F04CFACDE7FFE704980122400064
:10046000C117121A00238B4104983146C417381A59
:10047000A141EEE730B40124E407634030BC55E706
:1004800030B40124E407614030BC4FE70000E0FFD6
:10049000F0B51FB488B00B99099800244840099919
:1004A000C00F490049080991C0070B990090490005
:1004B00049080B9109990898A64608431CD00B9946
:1004C0000A98084318D0099801244000420D4800BA
:1004D000410D099824050003000B204309900B9857
:1004E0000003000B20430B9050181C4940180022B9
:1004F00001901446104605E0002001460DB0F0BD05
:10050000032801DA034600E003239C46C11A0AAE21
:100510000AE05F0008ADED5B4F00F75B7D4300270D
:10052000AA187C41491C5B1E6145F2DD410004AB09
:100530005A522104120C0A43240C401C0828DFDB09
:10054000019802900099704601910090059B049AD1
:100550000799069800F0D8F9D0E700000DFCFFFFDE
:10056000F0B50C465C4085B0E40FE40703944C0002
:100570000026640859009446490802460296224320
:1005800021D062460A431ED06200570D4A000E0376
:100590002303550D012402462C492405781B1B0B0F
:1005A000360B401823432643614600901C46501AE0
:1005B000B44103D30098401C009002E092180098C8
:1005C0005B41002803DA0020014605B0F0BD0020A1
:1005D000012109050746864611E064461D46141BA5
:1005E000B54106D36546521BB341744607430C43DD
:1005F000A646CD0740084908284392185B410546A6
:100600000D43EAD11046184313D0604619465040B6
:100610007140084306D06046101AB34106D2012249
:10062000002306E000220123DB0702E00122D2437F
:100630005310009874460105381C6141029C039DCB
:100640000019694100F053F9BFE70000FD03000005
:1006500070B54B005B0803430BD04B005C0D0026CC
:1006600033466542B341D417AD1AA34102DB0020E3
:10067000014670BD12053018514170BD10B5002201
:100680009623114600F0FAF810BD00000EB5C2170F
:10069000C10F5040CA0740180021054B0293019238
:1006A00000910A460B4600F02FF903B000BD000090
:1006B000330400000EB505490291002100910A465D
:1006C0000B46019100F020F903B000BD3304000097
:1006D000410040020122400AD205090E80187F29FC
:1006E00001DA00207047962903DC9622511AC8408F
:1006F000704796398840704770B5CD0F4A0009039E
:100700000123090B1B0519430B4BED070024520D68
:100710009A4201DA002070BD074B34339A4203DC61
:100720009A1A00F07FF802E00449511888402C43DF
:10073000F1D0404270BD0000FF030000CDFBFFFF81
:100740004A0009030123090B1B051943094B10B586
:10075000520D9A4201DA002010BD064B34339A4202
:1007600003DC9A1A00F05EF810BD03495118884066
:1007700010BD0000FF030000CDFBFFFFC20FD2073A
:10078000400040080BD0C10D0723DB01C91840020F
:100790000905400A1143C208400711437047002071
:1007A0000146704710B5002904DB0124E4074042EC
:1007B0008C412146002B04DB1C460123DB075242FF
:1007C000A341994200D1904210BD0000CB0FDB073E
:1007D000490010B5490802460A4307D00A0D07240C
:1007E0000903E401090B121B002A01DC002010BDE3
:1007F000C900440F0C43C100E018D205801800F076
:1008000035F810BD10B5202A04DB0146203A91408E
:10081000002010BD914020239C1A0346E340194359
:10082000904010BD10B5202A04DB0846203AD04085
:10083000002110BD0B46D340D0402024A21A914085
:100840000843194610BD10B5202A06DBCB17084611
:10085000203A1041C1170B4306E00B461341D0402C
:100860002024A21A91400843194610BD002904DA39
:10087000401C490001D140084000704770B400247A
:10088000050C05D11024000402D1002921D0112427
:10089000050E01D100020834050F01D10001241D0D
:1008A000850F01D18000A41C002801DB4000641CDE
:1008B000002908D020252E1B0D46F540A14000D070
:1008C00001212943084301061B1B000ADB1D02D539
:1008D000002070BC7047DB05181880180029F8DA72
:1008E000401C4900F5D170BC40084000704710B56D
:1008F000002B08DA0024401C614192185B411A4326
:1009000001D14008400010BDF0B51FB482B00546CB
:100910000C0003D0084608F072FC02E008F06FFCFF
:1009200020300246009021462846FFF76BFF049BCB
:10093000059A04460F4618431143084314D018463D
:1009400010431BD0009840210A1A18460599FFF75A
:1009500069FF05460E46009A05990498FFF752FF75
:10096000084305D0012004E02046394607B0F0BD19
:100970000020C11705430E432C43374300990E98BE
:100980006305401A7905E40A00220C43FD0A0A3087
:1009900002D500200146E9E70105101969410C9CC8
:1009A0000D9D00196941FFF7A2FFDFE7F8B5054685
:1009B000480040080C46284304D06000184A400D07
:1009C000904201DD2846F8BD15493539884210DCD2
:1009D00088420BDB290D200308432903014305D07E
:1009E000E00F1049C00741180020F8BD0020014663
:1009F000F8BD161A4020821B28462146FFF702FF49
:100A000007460091284621463246FFF70BFF3A463B
:100A1000009BFFF76CFF3246FFF7F4FEF8BD0000C5
:100A2000330400000000F03F10B5002904DB01246E
:100A3000E40740428C412146002B04DB1C46012385
:100A4000DB075242A3418B4200D1824210BD00001D
:100A5000064C0125064E05E0E36807CC2B430C3C11
:100A600098471034B442F7D3FFF72EFB74A7000861
:100A700094A7000870B58C180578401C6B075B0FB5
:100A800001D10378401C2A1106D10278401C03E0F2
:100A900006780E70401C491C5B1EF9D12B0705D44B
:100AA0000023521E0DD40B70491CFAE70378401C3A
:100AB000CB1A921C03E01D780D70491C5B1C521E62
:100AC000F9D5A142D8D3002070BD000038B5044646
:100AD000064805490068FFF70BFB604300E0401E35
:100AE00000900028FBD138BD40420F0004000020D8
:100AF000F8B50446006881688907890F012902D189
:100B00000168C90722D18168114A102611400125C8
:100B100000290ED18168294381600120FFF7D6FFAB
:100B200000F0A4FF07460CE000F0A0FFC01B0A285D
:100B300007D9A06D3043A065E06D2843E065012032
:100B4000F8BD20680068C043C007EDD10020F8BDA3
:100B500017000080F0B589B00C460746102200212E
:100B6000684609F05DF92246243269460846049237
:100B700008F090FB68460078872500066946002843
:100B80000FDA00228E18885C76784300F60933432A
:100B90008B54521C0F2AF5DBC87B0A464000684084
:100BA0000DE000228E18885C76784300F609334306
:100BB0008B54521C0F2AF5DBC87B0A464000D073C9
:100BC0002068102812D00878000619D500228E1847
:100BD000885C76784300F60933438B54521C0F2A05
:100BE000F5DBC87B0A464000684017E00020221869
:100BF000137D0D5C401C6B4013751028F7DB24E05F
:100C000000200B180A5C5B785200DB091A430A5477
:100C1000401C0F28F5DBC87B0A464000D0732246F3
:100C2000256880231432AB54002300E083542068ED
:100C3000401C20601028F9D300202218137D0D5C81
:100C4000401C6B4013751028F7DB002021180A792F
:100C50000B7D401C5A400A711028F7DB1022211D21
:100C600005A809F0C5F8394605A8049A08F012FB52
:100C700010220021684609F0D3F809B0F0BD10B584
:100C8000044610220021001D09F0CAF80020014688
:100C900020602046F022243009F0C2F810BD0B4637
:100CA000024610B524321021184608F01DFB10BD75
:100CB000F0B504460F46214689B000681431009112
:100CC00010311546079100283CD010210E1AAE4273
:100CD00000D316460099B2B24018394609F088F898
:100CE000206880192060102834D3B54232D000200B
:100CF00021180A790B7D401C5A400A711028F7DB35
:100D0000211D201D079A08F0C5FABF19AD1B19E077
:100D1000002021180A793B5C401C5A400A711028B7
:100D2000F7DB1022211D02A809F062F802A908468B
:100D3000079A08F0AFFA102202A9201D09F058F80E
:100D4000103D1037102DE3D8AAB23946009809F0AB
:100D50004FF8256009B0F0BDF7B523490F22497A55
:100D6000214B511ACDB2197A5B7A0F26F31A0A4633
:100D7000DEB2871E491C0124C9B2761E3B0008F072
:100D80006DFA09060C060C120C06062B3000164BE9
:100D9000AA4224D2154CA05403E0134BB24215DBF7
:100DA0001DE019720DE0104EAD1EAA4217DA0F4B6E
:100DB000985401985854491CC8B202991954401CBF
:100DC0003072002408480121C17108E0074CA0548A
:100DD00001986054491CE4E7034BAA42F6D320462D
:100DE000FEBD0220FEBD0000000100203A070020E9
:100DF00070B5234A7D23D16D5B01CB1A20241425C5
:100E00001946145F555F59434C435D43E415ED1299
:100E100064191225555FAD002C19D56AAC40162512
:100E2000555F09135D436B131E25555FA41C694371
:100E300009145918891C01258910138BED034919D0
:100E40004B43D90BA410D36A001B0E4ADA4050431F
:100E50002A04904203D24000FFF74AF902E0FFF76C
:100E600047F940000112084A49435143074A09140F
:100E7000424312148918064A89180911081870BDCE
:100E80007800002050C30000DE0B000043E3FFFFAA
:100E9000CF0E000070B5094CA18B401A618B4843FE
:100EA000C5132620205E29182420205EC002FFF7EB
:100EB00035F92818E0650830001170BD7800002071
:100EC00073B584B07D24E400134D009406460123DD
:100ED00005AA698900F000FF0094012301AA69892D
:100EE000304600F06DFE6946087D0123401C087302
:100EF000009403AA6989304600F0EEFE00940123B5
:100F000002AA6989304600F05BFE69460879097AD1
:100F10000002084306B070BD7800002070B588B0AC
:100F20000646F4206946294C0871E06A7D25800157
:100F300034304871ED000095022301AA61893046E2
:100F400000F0CAFEF62069460875F7200876F820FA
:100F500008771A2000F026FC0095012305AA618974
:100F6000304600F0B9FE0095012302AA618930469F
:100F700000F026FE0095012306AA6189304600F0A4
:100F8000ABFE0095012303AA6189304600F018FEEC
:100F90000095012307AA6189304600F09DFE009567
:100FA000012304AA6189304600F00AFE6946087AE6
:100FB000097B0004090208436946097C0843E16A89
:100FC0000822511AC84008B070BD00007800002007
:100FD0007CB50546F421684601712E2141717D20C2
:100FE000C000094C0090022301AA6189284600F044
:100FF00073FE052000F0D6FBF6212846FFF760FFC0
:1010000000B220857CBD000078000020FFB50020E4
:1010100085B00090054606460190002477000798A9
:101020000121C05BA140084230D028190C22039056
:101030005043089A1258002A28D0059A002A01D154
:10104000490723D008994118082002910856021137
:1010500000070117069840B205F05EF9002815D088
:1010600002980C21407A48430E9940188068002865
:1010700004D00198401CC0B2019007E0009A0F997B
:10108000039888540098401CC0B20090641CE4B2DD
:10109000102CC4D31035761CEDB2F6B2102DBCD393
:1010A000109901980870009809B0F0BD10B502F0D1
:1010B000BFFB10BD10B5012000F000FC022000F0C5
:1010C000FDFB10BD10B5042000F0F8FB082000F077
:1010D000F5FB10BD10B5102000F0F0FB202000F053
:1010E000EDFB402000F0EAFB802000F0E7FBFF2052
:1010F000013000F0E3FB0120400200F0DFFB0120A3
:10110000800200F0DBFB0120C00200F0D7FB0120D1
:10111000000300F0D3FB0120400300F0CFFB0120CF
:10112000800300F0CBFB0120C00300F0C7FB10BD23
:1011300010B5084900224A6107494B684C15234302
:101140004B604B68082423434B60C009C001026018
:1011500010BD0000F80100200020024010B5214A17
:1011600000219069C305204804D541690223194331
:101170004161911593699B0505D54369012423437A
:1011800043616302194393695B0505D543690824EC
:1011900023434361E301194393691B0505D5436963
:1011A0000424234343616302194393699B0405D5D7
:1011B00043691024234343616302194393699B03EA
:1011C00004D5446920231C43446119439369DB031C
:1011D00005D54369402423434361A0020143916143
:1011E00010BD000000200240F801002070B5054647
:1011F00000F03CFC0646184C0AE0681C08D0002DA4
:1012000004D000F033FC801BA84201D9032070BD3C
:10121000A069C007F1D1A069800701D50220A061B3
:10122000A069C00511D4A06980050ED4A06940054D
:101230000BD4A069000508D4A069800405D4A06976
:10124000800302D4A069C00303D5FFF787FF012004
:1012500070BD002070BD00000020024006498000E3
:1012600009580648091803D0C14203D0002070472E
:10127000012070470220704750A30008702FFCFF28
:1012800010B5094A0021CB00D458844207D89B18D6
:101290009B68834203D9C8008018007910BD491C9F
:1012A000C9B21529EFD3FEE7C4A60008F8B5054674
:1012B00004464035287D0026012808D001202875E5
:1012C000206881688907890F01290ED101E0022079
:1012D000F8BD0168C90708D0A06D20210843A065AA
:1012E0000126002028753046F8BDA16DFF2201328D
:1012F000914302221143A165C1688907890F0091BA
:10130000C16889088900C16020688168920711431B
:10131000816000F0ABFB07460EE000F0A7FBC01BAE
:101320000A2809D9A06D0221884310210843A0652D
:10133000002028750120F8BD206880680028ECDBBB
:101340002068C168009A1143C160A06D80088000C8
:10135000401CA065C5E70000F8B506460D464036BE
:10136000317D01290DD00121317501688A6852074C
:1013700009D5816D2022114381650020307501203F
:10138000F8BD0220F8BD174B6A68D80547109A428D
:10139000154C8A6A2B6812D05B035B0B1A438A6276
:1013A0002968490305D5A1680143A1600A20FFF718
:1013B0008DFB2868800312D5A06838430EE05B03DC
:1013C0005B0B9A438A622968490302D5A16881436D
:1013D000A1602868800302D5A068B843A0600020FF
:1013E0003075F8BD01100000002701400068006C56
:1013F0007047000070B5040006D0A06D2646002599
:101400004036002802D006E0012070BDE565357544
:10141000204600F0D1F8A06DC00603D4216888688A
:10142000400705D5A06D10210843A0653575EBE791
:10143000A06DFF220132904302221043A06588680C
:101440008207920F5A48012A02D10A68D2072BD18B
:10145000032362689B079A4205D05B429A4202D0FE
:101460005B009A4209D10A69920092080A612168D8
:101470000A6963681A430A610CE00A6992009208DB
:101480000A6181680F2292049143816081686268D9
:10149000114381602168CA6818239A43CA60216891
:1014A000CA68A3681A43CA60816801225206914340
:1014B00081608168228F52061143816020688168B3
:1014C000C90004D481680122120711438160206899
:1014D000C168384A1140C1602169E068022923D0FF
:1014E00000210843216A226B49035200114308433B
:1014F000616B0843A16989030843E169C903084393
:101500002168CA681043C860A06A0146FF39C23921
:1015100005D0E16A08432168CA681043C860606A60
:101520000121012802D00BE00421DAE7206A00281B
:1015300023D0A06D20221043A065E06D0843E06534
:10154000206C012820681FD00169C90703D00169F8
:1015500049084900016120684169C908C900416121
:1015600020684169E26B11434161E565A06D800827
:101570008000401CA065002070BD2068C268012367
:101580001B041A43C260DBE70269FF239B009A43F6
:10159000026120680269636CE66C1A43A36C3343F2
:1015A0001A430261206802690A430261D3E700001E
:1015B000002701401902FEFF00B500680A4985B006
:1015C00088420FD10948416B4215114341632020E5
:1015D000009003200190002002900520694600073A
:1015E00000F078F905B000BD002401400010024071
:1015F000F8B504464069254640350E4608280BD00C
:101600002068C068C00709D0A06D20210843A065EC
:10161000002028750120F8BD082700E00C2700F005
:1016200025FA009011E0701C0FD0002E05D000F0BC
:101630001DFA0099401AB04207D9A06D0421084351
:10164000A065002028750320F8BD20680068384296
:10165000E9D0A06D012149020843A0652068C16856
:1016600009058A0F0C21002A1AD1226A002A17D1F3
:101670000268120714D5826853070122002B08DB89
:1016800043688B434360A06D130298431043A065E9
:1016900006E0A06D20231843A065E06D1043E065CF
:1016A000A069002801D1206801600020F8BD000079
:1016B00070B50446216800208968490721D4254671
:1016C0004035297D01291CD001212975E1690129B5
:1016D00004D02046FFF70CFA002811D1A16D0A4A68
:1016E0001140FF2201321143A1650021E1652975F6
:1016F00022681C21116021688A6804231A438A60C9
:1017000070BD022070BD0000FEF1FFFF70B5002427
:10171000024620325179022903D00421C1630124F9
:101720003CE001680B680E25AB430B6001680B6859
:101730005B085B000B601A4B0168994201D10121E3
:1017400021E0174B1433994201D110211BE0144BB7
:101750002833994201D1891515E0114B3C33994248
:1017600001D189140FE00E4B5033994202D101216F
:10177000090408E00A4B6433994202D101210905AA
:1017800001E001210906064B083B59600121517116
:1017900000211171816B002900D08847204670BD5F
:1017A0000800024001B50098FFF780FC08BD00006A
:1017B000F8B51A4E0546307C0F46012807D00120A7
:1017C00030741748FFF712FD010002D021E002201B
:1017D000F8BD0020C04338606C6814E02046FFF775
:1017E000A7FC0F48FFF702FD01460E484268082398
:1017F0009A434260426843159A434260002901D0EF
:101800003C6006E08034A8686A68C0018018A04285
:10181000E4D8002030740846F8BD0000F80100202C
:1018200050C30000002002400348416802221143D7
:10183000416000207047000000200240F8B50C4CC9
:101840001646207C0F46012808D001202074094844
:10185000FFF7CCFC0025002802D006E00220F8BDEE
:1018600065613E600348FFF7C1FC2574F8BD0000C8
:10187000F801002050C300000948416889070CD5D1
:101880004168C90703D00749C1600749C1600749DA
:101890000161074901610020704701207047000085
:1018A00000200240EFCDAB8905040302BFAE9D8C42
:1018B0001615141310B501F027FF10BD10B504491B
:1018C0004A69024202D04861FFF7F4FF10BD0000F0
:1018D00000040140F8B500230124A7E027469F40FB
:1018E0003A4070D04D68022D01D0122D14D1DD0880
:1018F000AD002D1800952D6A5E07AC46F50E0F263B
:10190000AE46AE406546B543AC460E697546AE4040
:1019100065462E43009D2E624D68012D05D0022D97
:1019200003D0112D01D0122D16D185680326AC46A7
:101930005D00AE46AE406546B543AC46CE687546E2
:10194000AE4065462E43866046680D79BE43ED067F
:10195000ED0F9D403543456006685F000325BD409F
:10196000AE46AE430D79B446AE07B60FBE406546EF
:101970002E430660C6687546AE438D68BD4035434C
:10198000C5604D68ED0050D52B4D6E6B26436E63E0
:101990009E082A4DB6007519AC46AD689E07360FF5
:1019A0000F27B740BD4305273F07B84201D10027A5
:1019B0001AE0234FB84201D1012715E0214FB84268
:1019C00002D1022710E030E01F4FB84201D10327B7
:1019D0000AE01E4FB84201D1042705E01C4FB8426F
:1019E00001D1052700E00627B7402F436546AF60C9
:1019F000184D2E684F689643FF0300D516432E609E
:101A00006E684F689643BF0300D516436E60AE689C
:101A10004F689643FF0200D51643AE60EE684F68EC
:101A20009643BF0200D51643EE605B1C0A6815465C
:101A3000DD4000D052E7F8BD001002400000014038
:101A40000004005000080050000C0050001000502E
:101A5000001C00500004014042694A404261704746
:101A6000002A01D081617047816270470148006897
:101A7000704700000000002070B5024640325378E5
:101A8000202B1CD11378012B19D00123137024248F
:101A90005470046825689D432560046825681E030A
:101AA000B5432560046825680D432560006801681A
:101AB00019430160202050700020107070BD02207A
:101AC00070BD70B5024640325378202B1BD113787D
:101AD000012B18D0012414702423537003681D684F
:101AE000A5431D6005682B680F263602B343090223
:101AF000194329600068016821430160202050706B
:101B00000020107070BD022070BD000070B5040090
:101B100006D02546403568780026002802D005E02A
:101B2000012070BD2E70204600F062F924206870FC
:101B3000206801684908490001600F2160680906B2
:101B400088432168086121688A680120C0038243B4
:101B50008A60E1680129A16808D02122920211431C
:101B600022689160E168022902D005E00143F7E7AD
:101B700001212268C902516021684A680F4B1A434B
:101B80004A602168CA688243CA6061692069084363
:101B9000A169090208432168C860216AE069084315
:101BA00021680860206801680122114301606664B1
:101BB000202068702663AE70002070BD0080000297
:101BC000FFB5054604464035687881B020287DD1B0
:101BD000287801287AD001202870FFF747FF0746B0
:101BE000012200901923D103204602F0D5F80028E5
:101BF0003ED1222068701020A870002666640398E9
:101C00006062049860856663618D3148FF2903D95D
:101C1000FF222285009034E0618D2185009036E01E
:101C20002046029902F0A4F836E002F0D9F8002824
:101C300003D0606C042847D01AE02068416A606ACB
:101C4000421C62620170208D401E80B22085618D31
:101C5000491E618500281FD1608D00281CD0009787
:101C60000022802120460A9B02F096F8002802D02C
:101C7000032005B0F0BD608DFF2805D9FF22228525
:101C8000009601231B06CBE7608D20850096208DF2
:101C90000123C2B25B06C3E7608D0A9900283A4669
:101CA0002046C2D102F0D8F80028C2D121682020F5
:101CB000C86121684A68074B1A404A606870AE7074
:101CC0002E700020D5E701E00120D2E70220D0E706
:101CD0000024008000E800FEFFB5054604464035BC
:101CE000687881B020287DD1287801287AD0012019
:101CF0002870FFF7BBFE0746012200901923D1038D
:101D0000204602F049F800283ED1212068701020BA
:101D1000A870002666640398606204986085666314
:101D2000618D3148FF2903D9FF222285009034E0DC
:101D3000618D2185009036E02046029902F018F866
:101D400036E002F0B0F8002803D0606C042847D0D9
:101D50001AE0606A411C6162017820688162608DCE
:101D6000401E6085208D401E0004000C20851FD180
:101D7000608D00281CD000970022802120460A9BFD
:101D800002F00AF8002802D0032005B0F0BD608DF3
:101D9000FF2805D9FF222285009601231B06CBE7E9
:101DA000608D20850096208D0123C2B25B06C3E7BB
:101DB000608D0A9900283A462046C2D102F04CF8BC
:101DC0000028C2D121682020C86121684A68074BD9
:101DD0001A404A606870AE702E700020D5E701E0AE
:101DE0000120D2E70220D0E70020008000E800FEBA
:101DF00000B500680D4985B0884214D10320000267
:101E000000901220019001200290032003900420F2
:101E1000049069460648FFF75DFD0648816B012284
:101E200052051143816305B000BD0000005400401D
:101E3000000400500010024002480168491C016083
:101E4000704700000000002010B5064801684022DD
:101E500011430160002000F007F800F007F80020AF
:101E600010BD0000002002400020704710B50C4853
:101E7000416B012211434163816B02041143816371
:101E800000221146501F00F017F800221146901E44
:101E900000F012F800221146501E00F00DF810BD9F
:101EA00000100240C106C90E0120884001490860A7
:101EB0007047000000E100E010B502F0D7FF10BD50
:101EC000F8B56649074601250020ED03624B634AD9
:101ED0004031102F6FD011DC012F77D0022F6CD042
:101EE000042F6BD0082F24D1C96803242403214078
:101EF0007BD0BD026C10A9427CD0A0E00326584CD8
:101F00003604202F0BD0402F35D0FF3F012F10D1AA
:101F1000C968314069D07C04A1426BD096E00B695E
:101F20000969012731403F04B94203D1990559E0BD
:101F30002846F8BD01256D04A94203D19907F8D5BB
:101F40004848F8BDB142FCD111688903F9D5116840
:101F500003200005014001200005091A09D0091AD3
:101F600005D0814201D14048F8BD2046F8BD3F4828
:101F7000F8BD3F48F8BDC9680125AD06294006D027
:101F8000A942F7D191688907F4D53A48F8BD11689C
:101F90008901FBD5D068D1688002374D000F2D5CD8
:101FA0000802810FD068491CC0030AD41068C0061B
:101FB00005D5204606E045E008E023E030E018467D
:101FC00000E02E486843FEF793F8F8BDCC68A407FC
:101FD000A40F0CD0022C0DD0012C10D0032CF4D166
:101FE000096989050029A3DBF8BD16E002E000F0CD
:101FF000D1F9F9E711684907F6D51846F4E700F07A
:10200000D9F9F1E7CC680C26344006D0082CF1D081
:10201000042CF4D00C2CE3D0E6E700F0ABF9E3E7B6
:10202000CC680326B6023440F7D00127FF02BC4239
:10203000E0D07A109442E2D0B442D1D0D4E7A142A9
:10204000DDD0D1E7916B4902E7D4CDE7012212043C
:102050009142D4D0C8E700000024F40000100240F0
:1020600000093D008890000020A1070040420F00B9
:1020700080841E00006CDC0232A2000800127A008C
:10208000F8B5044600785E4D800672D55C4E002798
:10209000403EB06BC00004D4B06BA9050843B063E8
:1020A000012758480168C90511D4016882151143F8
:1020B0000160FFF7DBFC009005E0FFF7D7FC00991B
:1020C000401A642837D84F480068C005F5D53268F3
:1020D0000321090560680A400140914208D081034C
:1020E000890F032904D13168890301D50120F8BD86
:1020F0002A69032109040A4022D0084090421FD0D7
:10210000207880061CD528692A6988430121C904E2
:102110000A432A612A698A432A612861C0050FD5CA
:10212000FFF7A4FC009008E0FFF7A0FC0099411A1B
:102130003548814201D90320F8BD28698005F3D5CF
:1021400061688803800F032805D132680005824347
:1021500001400A4332602869032261681204114079
:1021600008432861002F04D0B06B01210907884380
:10217000B0632078C00705D0E868A16880088000B7
:102180000843E8602078800705D5E8680C2188437B
:10219000E1680843E8602078400706D5E868032135
:1021A0008902884321690843E8602078000706D542
:1021B000E86803210903884361690843E8602088CF
:1021C000C00506D5E868032109048843A1690843CE
:1021D000E8602078400606D5E86801218906884332
:1021E000216A0843E8602078000606D5E8680321E4
:1021F00089048843E1690843E8600020F8BD0000D5
:10220000401002400070004088130000F8B50546F9
:1022100053480E460068C007C00FB0420AD250486B
:10222000016849084900314301600068C007C00FD8
:10223000B0426FD128784B4C800705D5E068F0217B
:102240008843A9680843E0602878C00752D06868CE
:10225000022817D0032818D02168012818D0890532
:10226000002957DAE168890889000143E160FFF736
:10227000FDFB69680746022912D003291CD00129F9
:1022800026D033E021688903EAE721688901E7E77E
:102290004907E5E7FFF7EAFBC11B3348814223D832
:1022A000E0680007800F0228F4D123E0FFF7DEFB8F
:1022B000C11B2D48814217D8E0680007800F032812
:1022C000F4D117E0FFF7D2FBC11B274881420BD89E
:1022D000E0680007800F0128F4D10BE0FFF7C6FB90
:1022E000C11B2148814201D90320F8BDE0680007E5
:1022F000800FF3D11A480168C907C90FB1420BD941
:10230000016849084900314301600068C007C00FF7
:10231000B04201D00120F8BD2878400706D5E0681A
:10232000072109028843E9680843E060287800072C
:1023300007D5E0680721C90288432969C900084315
:10234000E06000F037F8E168084A0906090F515CBF
:10235000C840074908600020FFF786FD0020F8BD4F
:1023600000200240001002408813000022A2000852
:1023700004000020044805490068C968044A49056A
:10238000490F515CC8407047040000200010024013
:102390003BA20008044805490068C968044A89044A
:1023A000490F515CC84070470400002000100240F3
:1023B0003BA2000810B5184AD1680C200840042838
:1023C0000BD0082810D00C2810D050680004410F02
:1023D0000120C003491C884010BD1068C00601D50B
:1023E0000E4810BD0E4810BD0E4810BD88020E4BA1
:1023F000000F185C0902D368890F491CDB0301D563
:10240000084A05E01268D20601D5044A00E0044AF1
:102410005043FDF76DFE10BD0010024000093D0065
:102420000024F40000127A0032A20008F8B5044635
:102430000078FE4DC0074AD0E8680007800F0228E8
:1024400007D0E8680007800F032809D1E868C003B7
:1024500006D5286880033AD56068002873D036E036
:10246000012062680004824203D129680143296087
:1024700011E0052301211B0489049A422A6802D134
:102480000A432A60F1E782432A602A6802400092E8
:10249000286888432860606800280CD0FFF7E6FAB7
:1024A000064604E0FFF7E2FA801B64287ED828681D
:1024B0008003F7D50BE0FFF7D9FA064604E0FFF7F3
:1024C000D5FA801B6428F1D828688003F7D42078D7
:1024D000800741D5E8681F270007800F3F020128C9
:1024E00007D0E8680007800F032809D1E868C00317
:1024F00006D42868400717D5E068012823D113E0E7
:10250000E068002817D02968092291430143296017
:10251000FFF7ACFA064604E0FFF7A8FA801B022892
:10252000C4D828684007F7D568682169B84309020C
:102530000843686010E02868400840002860FFF702
:1025400095FA064605E095E0FFF790FA801B022811
:10255000ACD828684007F7D42078C00672D5E86860
:10256000B34E0007800F0AD0E06900282868B149FF
:102570005AD008432860FFF779FA074644E02868F4
:10258000800502D5E069002874D0606A696831402E
:10259000884212D903F0B2FC0028AFD16868616AA2
:1025A000B043084368606868000200E0DCE0218C0A
:1025B000000A0906084368600FE06968B1430143F7
:1025C00069606868218C0002000A09060843686097
:1025D000606A03F093FC002890D1606A410B0120EF
:1025E000C003491C8840E96809060A0F9249895CC2
:1025F000C840924908600020FFF736FC22E0FFF750
:1026000035FAC01B02288BD828688005F7D5686882
:10261000616AB043084368606868218C0002000A60
:102620000906084368600DE088432860FFF71EFA3A
:10263000064604E0FFF71AFA801B022888D82868AB
:102640008005F7D420787E4E000723D560690028E6
:10265000306910D0012108433061FFF707FA0746BF
:1026600004E0FFF703FAC01B02287DD83069800719
:10267000F7D50FE001E1400840003061FFF7F6F9BF
:10268000074604E0FFF7F2F9C01B02286CD8306956
:102690008007F7D42078400760D5A86B0027C000DA
:1026A00005D4A86B012109070843A86301276548E1
:1026B0000168C90511D40168821511430160FFF753
:1026C000D5F9009005E0FFF7D1F90099401A642888
:1026D0004AD85C480068C005F5D55648A2688242D1
:1026E00003D131690143316111E001218902002ADE
:1026F00007D005231B029A4203D132690A43326193
:10270000EFE7326982433261306988433061A06803
:1027100000280ED0FFF7AAF9009006E0FFF7A6F90F
:102720000099411A484881421ED830698005F5D584
:102730000DE0FFF79BF9009006E0FFF797F900998D
:10274000411A414881420FD830698005F5D4002FE5
:1027500004D0A96B012000078143A963207880067B
:1027600030D53A48421400E080E0A169002916D033
:10277000AB6801210B43AB606B6B0B436B63016A6E
:1027800011430162FFF772F9064604E0FFF76EF9A4
:10279000801B02286AD8A8688007F7D512E0A968CC
:1027A00049084900A960016A91430162FFF75EF997
:1027B000064604E0FFF75AF9801B022856D8A8689D
:1027C0008007F7D4A06A002855D0E9680907890F67
:1027D000032952D0012636060228286805D0B043C6
:1027E0002860FFF743F9044642E0B0432860FFF752
:1027F0003DF9074604E0FFF739F9C01B022835D838
:1028000028688001F7D4216BE06AEA680843616BAD
:10281000FD231B049A4311430843E86028683043B2
:102820002860FFF723F9044617E00000001002407B
:1028300000E000000001000022A2000804000020C7
:10284000401002400070004088130000000001406A
:10285000FFF70CF9001B022808D828688001F7D57B
:1028600009E0FFF703F9001B022801D90320F8BD96
:1028700028688001F5D40020F8BD0120F8BD30B5EE
:10288000014620310A78012A15D001220A7002235C
:102890004B700468CA23636204685323636203684D
:1028A0009C6820252C439C600068FF2343624A708B
:1028B0000020087030BD022030BD10B506F0D8F8F9
:1028C00010BDF8B5054604462035287801281DD0EE
:1028D00001202870022068702268CA205062226895
:1028E00053205062FF2001300026FF2781421CD177
:1028F00021688A6882438A60206881680122120305
:1029000091438160FFF7B2F8009009E00220F8BD22
:10291000FFF7ACF80099411A7D20C00081421BD816
:102920002068C068C007F3D020E0206881680122D9
:102930005202914381602068816812019143816055
:10294000FFF794F800900DE0FFF790F80099411A16
:102950007D20C000814205D920684762032068704D
:102960002E70F8BD2068C0688007EDD520684762EA
:10297000012068702E700020F8BD10B500680B466D
:102980004068C021C94301400002000ECC04D87049
:10299000E40E5C708C06A40E0904490F9C7019703B
:1029A000002A0AD103F0E2FAD870587803F0DEFA70
:1029B0005870987803F0DAFA9870002010BD000083
:1029C00030B50B460168896A596001680969490494
:1029D000490C9960006804680F482146014088024C
:1029E0004D04800E18706D0E49065D70490E997089
:1029F0006102490E40242140D970002A0AD103F017
:102A0000B5FA1870587803F0B1FA5870987803F056
:102A1000ADFA9870002030BD7F7F7F0070B5040054
:102A200005D0254620356878002802D006E0012030
:102A300070BD00202870204600F042F80220687027
:102A40002168CA204862216853204862204603F06A
:102A5000A0FAFF210028206803D04162042068709A
:102A6000E5E78268154B1A408260226890686368C7
:102A7000A669184323693343184390602268E068CD
:102A800010612068026923891B041A4302612068CF
:102A9000C26880239A43C2602068C26C9208920088
:102AA000C264E269606902432068C36C1A43C2646D
:102AB0002068416201206870002070BDBFFF8FFF59
:102AC00000B597B00420009000200A90FF2001304C
:102AD00002906846FFF7AAFC002803D0932110A0BB
:102AE00006F08CFB20200E90C0020F900EA8FFF77E
:102AF000C7FA002803D09B2109A006F07FFB0F48EE
:102B00000169012292041143016100221146022051
:102B1000FFF7D2F90220FFF7C5F917B000BD00009A
:102B20002E2E5C5372635C6D6C6D33326C30787832
:102B30005F68616C5F6D73702E630000401002402F
:102B4000FEB506460446203630780B46012842D0B2
:102B5000012030700220707020681D46002720354B
:102B60008068002A39D0400655D5187803F0FEF960
:102B7000287803F0FBF91978987809040843597804
:102B8000DA78090212041143084329780906084338
:102B9000D969084359690843054699695868084343
:102BA00000902168CA204862216853204862FF20B3
:102BB0005A6A0130802182424AD122689368834355
:102BC00093602268D0680840FF388238D060FEF7F2
:102BD0004DFF019029E00220FEBD400600D4DF70C9
:102BE000187803F0CBF90204587803F0C7F9000213
:102BF0000243987803F0C2F90243D87800040243F4
:102C0000287803F0BBF900060243D86902435869EB
:102C100002431546C1E7DF70AAE7FEF727FF0199D7
:102C2000411A7D20C00081422AD82068C068C007B0
:102C3000F3D02068C56121680098486420688168E5
:102C4000FF2201321143816020688168120130E067
:102C50002068826801235B029A4382602068C26810
:102C60000A401D495118C160FEF700FF01900EE0B7
:102C7000FEF7FCFE0199411A7D20C000814206D971
:102C80002168FF204862032070703770FEBD206805
:102C9000C0688007ECD520680562216800988864C8
:102CA0002068816801225202114381602068816896
:102CB00012011143816009480268012149040A4355
:102CC000026082680A4382602168FF204862012016
:102CD000707037700020FEBD7FFDFFFF00040140D3
:102CE000F8B505460446203528780B46012815D04E
:102CF00001202870022068705878002A10D003F054
:102D000035F9987803F032F9D8789E7800040643B4
:102D10005878197800024903084316E00220F8BDEC
:102D2000C10603D5EF2108400A305870D87803F067
:102D300025F90604587803F021F900020643987833
:102D400003F01CF906431878400306432168CA20A3
:102D50004862216853204862204603F01AF9002790
:102D6000002811D110480640206846602068C168DC
:102D700080229143C1602068806880060CD4204680
:102D800000F08CF8002807D02168FF20486204205A
:102D900068702F700120F8BD2168FF204862012073
:102DA00068702F700020F8BD3FFFFF00F8B50646A1
:102DB0000446203630780D4601280ED001203070B0
:102DC00002207070206800278068002A07D0400623
:102DD0001AD5287803F0CAF817E00220F8BD40069B
:102DE00000D4EF70287803F0C9F80204687803F083
:102DF000C5F800020243A87803F0C0F80243E8785F
:102E00000004024300920BE0EF702978A8780904CF
:102E100008436978EA7809021204114308430090D4
:102E20002168CA204862216853204862204603F086
:102E3000B0F800281FD118490098084021680860A0
:102E40002068816801229204914381602969E868C1
:102E5000084321688A68104388602068C16880221E
:102E60009143C1602068806880060CD4204600F041
:102E700015F8002807D02168FF20486204207070F0
:102E800037700120F8BD2168FF2048620120707072
:102E900037700020F8BD00007F7F7F0070B50446CA
:102EA0000068C168A0229143C160FEF7DFFD7D2666
:102EB0000546F60006E0FEF7D9FD401BB04201D9F9
:102EC000032070BD2068C0688006F4D5002070BD66
:102ED00070B5040006D025464035687C00260028E1
:102EE00002D005E0012070BD2E74204600F032F8BB
:102EF0000220687420680168402291430160A16843
:102F0000606822690843E16811430843616901224E
:102F10000843A169520211400843E1690843216A4C
:102F20000843A16A084321680860A0690421000CD5
:102F30000840616A0843216848602168E06A0861C6
:102F40002068C16992009143C1616665012068747F
:102F5000002070BD7047F8B504460027684607801A
:102F600026464036707C012802D0707C22287ED113
:102F700000290CD0002A0AD0002B08D0307C012870
:102F800075D001203074707C012802D003E001204C
:102F9000F8BD322070746765A263A387E38721635D
:102FA000A386E386A764E7640125A06A6D03A842AF
:102FB00007D120680168A94301602068016829439E
:102FC000016020680168490603D40168402211436A
:102FD00001600121FF20E268C90205308A42616870
:102FE00066D1002904D081420CD1E08E012809D19C
:102FF000206B21680088C860206B801C2063E08EF5
:10300000401EE086E08E002843D1A06AA84246D147
:103010002068016801221203114301603FE020682B
:10302000C068A16B0880A06B801CA063B0E0002288
:1030300002212046069B03F04FFF00287DD1206B24
:1030400021680088C860206B801C2063E08E401ED1
:10305000E086E08E002808D1A06AA84205D1206849
:1030600001680122120311430160002200E0CCE05C
:1030700001212046069B03F02FFF00287FD1206806
:10308000C068A16B0880A06B801CA063E08F401E0D
:10309000E087E08E0028CAD1606800287BD100223A
:1030A00001212046069B03F017FF002867D1B6E7F1
:1030B000002904D081420BD1E08E012808D1206B79
:1030C000411C216321680078C860E08E401EE086C4
:1030D000E08E002845D1A06AA84205D12068016889
:1030E0000122120311430160002201212046069BA8
:1030F00003F0F2FE002842D12068C068A16B08707E
:1031000046E0002202212046069B03F0E5FE00284F
:1031100035D1206B411C216321680078C860E08EA6
:10312000401EE086E08E00280AD1A06AA84207D19E
:10313000206802680121090300E020E00A430260E0
:10314000002201212046069B03F0C6FE002816D16E
:103150002068C268A06B411CA1630270E08F401E12
:10316000E087E08E0028CCD16068002813D10022CF
:1031700001212046069B03F0AFFE002802D0032069
:10318000F8BD08E02068C168A06B421CA263017012
:10319000E08F401EE087A06AA8420FD100220121E3
:1031A0002046069B03F098FE002802D0606D0221A5
:1031B0000EE02068C06869460880088801228021E6
:1031C0002046069B03F088FE002804D0606D202175
:1031D00008436065D3E701207074A06AA84211D14A
:1031E00020688168C943C9060CD4616D022211436D
:1031F00061650168A9430160206801682943016095
:103200003774C4E637740020BAE70220B8E7704785
:1032100010B5FFF7FCFF10BD70477047F8B50268A6
:103220000446D06911680607360F07D1830605D515
:103230008B0603D5204605F096FDF8BD9568202342
:10324000002E65D0EE07F60FFF2721370F403743DA
:103250005ED0C70706D0CF0504D501271762E26EFE
:103260003A43E266820708D5EA0706D027680222B9
:103270003A62E26E04273A43E266420708D5EA075B
:1032800006D0256804222A62E26E02252A43E266FD
:10329000020709D50A461A40324305D0236808229E
:1032A0001A62E36E1343E366E26E002AC5D080061D
:1032B00004D5880602D5204605F055FDE06E0007CE
:1032C00003D42068806840061CD5204605F03CFDEC
:1032D00020688168490611D5826840218A4382604E
:1032E000606E00280AD01D498163606EFEF70EFAF9
:1032F0000028A2D0606E816B8847F8BD2046FFF79A
:103300008CFFF8BD2046FFF788FF0020E066F8BD7F
:103310002646C7026036002F0ADA6D0208D5012062
:10332000000510627372B3722046FFF775FFF8BD97
:10333000050605D50D0603D5204605F06BFEF8BD44
:103340004006FCD54806FAD52046146840218C4337
:103350001460737200F019F9F8BD0000358D000893
:1033600070B5040005D025466035687A002802D083
:1033700006E0012070BD00202872204600F026F8EB
:103380002420687220680168490849000160606A69
:10339000002802D0204605F037FC204605F022FD2B
:1033A0000128E7D0206841680922D2029143416098
:1033B000206881682A229143816020680168012287
:1033C00011430160204605F085FC70BD00B5006822
:1033D000114985B088421CD11048816B01225204EA
:1033E000114381630C200090022001900120029083
:1033F0000320039004200490052069460007FEF78F
:1034000069FA002211461C20FEF756FD1C20FEF72B
:1034100049FD05B000BD000000440040001002401E
:10342000F0B5034660339C7A202C44D100290BD0A0
:10343000002A09D0012584682D03AC4206D1066913
:10344000002E03D1CE0701D00120F0BD1E7A012E3F
:1034500031D001261E724165014640310A834A83FC
:10346000FF27AC4204D10269002A12D1134A0EE0B0
:103470007F22002C08D001252D07AC420AD1046917
:10348000002C04D03F2202E00469002C01D08A8382
:1034900000E08F830021C16622229A7219720168AE
:1034A0008A6832438A6000680168FF222132114332
:1034B00001600020F0BD0220F0BD0000FF0100000F
:1034C0007047FFB5064604466036707A83B00D46F5
:1034D000202858D1002D0CD00598002809D00120B3
:1034E000A1680003814207D12069002804D1E807C0
:1034F00002D0012007B0F0BD307A012843D001206E
:1035000030720020E06621207072FEF7AFFA019061
:1035100027464037059838820598788218E0788ADF
:10352000401E788206980090002280212046019B50
:1035300005F0A3FD002818D10120A16800038142F5
:1035400002D12069002812D02168287888626D1C79
:10355000788A0028E3D10698009000224021204676
:10356000019B05F08AFD002808D00320C2E72888C7
:103570002168C005C00D8862AD1CE9E7202070728B
:1035800000203072B6E70220B4E7704710B5124849
:10359000017800291ED10122027011480F490160F3
:1035A00000210164C161D30781614360826381604E
:1035B000C160016207234162C3630261C1620422E8
:1035C000426101630748416B42151143416304485E
:1035D000FDF710FF10BD00002C000020002401406A
:1035E000CC020020001002407CB51E490646097836
:1035F0000020002934D01C484168C9430907FBD486
:103600001A4C606B65152843606300211848FDF76C
:103610004DFE184800901848019069461448FDF77F
:103620009BFEA0140190694600961148FDF794FE98
:103630000F48FEF73DF80021C9430D48FDF7D8FFBC
:103640000B48FDF7D3FE0A4980B20A689368022648
:1036500033439360096803220A60616BA943616385
:103660007CBD00002C0000200070004000100240D3
:10367000CC020020FFFF07000110000001460020DF
:103680000A0A00D00820084A114201D0042210433F
:10369000064A114201D002221043054A114201D0CC
:1036A0000121084370470000F0F00000CCCC00007E
:1036B000AAAA000038B50B231B07C518114B0FD061
:1036C0001C152D1B18D02D1B19D0A542DD6A05D164
:1036D00008242543DD62DB6A234007E08024F8E705
:1036E000DC6A01252C43DC62DB6A2B40009311600D
:1036F0001146FEF7EFF838BDDD6A0224E9E7DD6A1E
:103700000424E6E70010024010B5FFF7B7FF810080
:1037100002484058002800D0804710BD2C030020EC
:1037200070B51C4615460E460846FFF7A7FF002C4D
:103730000DD0074980000C50304601F009FA0446CC
:1037400000222946FEF7B8FB2046FEF7ABFB70BD12
:103750002C03002010B5D2B2FEF782F910BD000094
:1037600070B500240E48FFF73FFF0E4E0E4D0100CE
:1037700013D00E483246008B5043FCF7B9FCB042E0
:1037800001D9FE2409E0A84207D3401BFE2148438B
:103790004B210901FCF7ACFCC4B2204670BD00000F
:1037A00000000244B80B0000080700006000F81F8A
:1037B00003494A690869496A504048407047000017
:1037C0004000F81F0F494B6A0A69D218120EC271E5
:1037D0004B6A0A69D218120C82710A8A8B8CD21831
:1037E000120A42710A7C8B8CD21802714A69120E3D
:1037F000C2704A69120C82708A8A120A4270097D6C
:10380000017070474000F81F10B5074C6078002821
:1038100008D106480068804700F0E2F900F092F80D
:103820000120607010BD00002C0000205CA2000888
:1038300070B5410EC0017D220023FCF783FC0546D4
:1038400000F078F80446064E03E000F073F8001B21
:10385000706000F06FF8001BA842F6D370BD000046
:103860003000002070B505460C4600222048FFF7C6
:10387000A7F8002229461E486668FFF77EF8002256
:1038800021461B48FFF79CF86068B042F1D1E87808
:10389000184A01465043C01C8308880726D01649A1
:1038A00068783D220646504302463C3A7000801E2E
:1038B000C1408807D10F8918800F4910081AC01815
:1038C000A978401E08180D493C2248436178E1233D
:1038D000514322781B015A438918A27810180818FE
:1038E000074A61688002511A401870BD0549D7E740
:1038F0006C030020B5050000A0AA990080510100CA
:10390000FF03000050554400032070470148006841
:1039100070470000B803002000B587B0694605A8CD
:10392000FFF7A0FF0249096807B0401A00BD000078
:10393000B803002000B587B0694605A8FFF792FFDD
:1039400007B000BD10B5084C207800280AD100F05F
:103950004FF8FF2101310548FEF7B3FF00F078F87A
:103960000120207010BD0000300000206C030020FA
:1039700010B50C4C012001F0D9F821688868C0040A
:103980000ED5C868C0050BD5C86880221040FF3826
:103990008238C8600449900248612046FEF78DFFD6
:1039A00010BD00006C0300200004014070B5044607
:1039B000FFF7B2FF211A0D4D0220285EC01C814284
:1039C00003D9012001F0B2F802E0012001F0A2F8D1
:1039D00001F0B8F8002805D1012001F0A7F8022075
:1039E000285E241A204600F03FF870BD3000002009
:1039F00010B51449144886B0002412C01F2101607C
:103A0000846004611149446141600838FFF706F899
:103A10006946CC750120487588750875002205A98E
:103A20000948FFF75DF90094019404940022694667
:103A300005480394FFF7BAF90348FEF720FF06B0E4
:103A400010BD0000002800406C030020FF030000B0
:103A500010B5044C2046211D1830FFF703FF2060ED
:103A600010BD0000B8030020F0B587B00446142252
:103A70003F4901A8FCF796FB3D485038406E009046
:103A800000F07EF83B4802993B4A401AA105890D97
:103A9000081887B2A10A68468078534202E0891864
:103AA000401C80B29942FAD26A461579E12212018D
:103AB00002E0891A6D1CADB29142FAD26A4654797D
:103AC00002E0641CA4B23C393C29FAD29279511824
:103AD0008EB20121890203E07A1A761C97B2B6B23F
:103AE0008F42F9D203E03C3E641CB6B2A4B23C2E35
:103AF000F9D203E03C3C6D1CA4B2ADB23C2CF9D22F
:103B000003E0183D401CADB280B2182DF9D26946D1
:103B1000C978890769464A7827D01849491E515CF7
:103B2000814202D2FCF7E4FA08461249CA1B104946
:103B30002C394A60052252068A618E704C700A4602
:103B40000D70203210706846C079C8700020C861BE
:103B5000FF2248610132C8604A6208610246084695
:103B60002438FEF7EDFF07B0F0BD04490C31D5E76E
:103B7000BC030020FF03000080AEFEFF43A200084C
:103B800010B506480168C86880221040FF388238A6
:103B9000C86051000148FEF794FE10BD6C03002080
:103BA00010B57D2105F042FB4906C009084310BD50
:103BB00010B5410EC0017D220023FCF7C3FA10BDF1
:103BC00001B582B00020C0430090012301AA02A9E0
:103BD0000248FFF7C0F9684680880EBDD403002074
:103BE00010B51D481B4901601D4A1C4B002112687D
:103BF00003E05208491C072901D29A42F9D84A0722
:103C00008B07D20FDB0F52011B011A43C90700D0EB
:103C100008210A43C2610021816001614161FF22E4
:103C2000C1600532816242600122016252028261FA
:103C300041620C48416B8214114341630648FFF70F
:103C400047F9002803D0732107A005F0D7FA00F048
:103C500013F810BD00300140D40300208096980076
:103C600004000020001002402E2E5C5372635C683A
:103C7000775F7370692E630030B585B01421684694
:103C8000FCF7A9FA02200190029003200390002083
:103C900004906A4608210F48FFF70CFD052424070D
:103CA0006A4640212046FFF705FD6A4680212046EE
:103CB000FFF700FD01210191CD0302916A462946DB
:103CC0002046FFF7F7FC012229462046FFF742FD78
:103CD00005B030BD00040050FEE701688A69D24398
:103CE000920701D400228A6200688169C943C9072A
:103CF00003D081690122114381617047F7B5044601
:103D000000680E468069C043C0062CD42027254693
:103D1000403520688069C04380060FD5701CF8D0FC
:103D2000002E05D0FDF7A2FE0299401AB042F0D94C
:103D30006F700020A87028700320FEBD216810203D
:103D4000C8612068C7612046FFF7C7FF2068416847
:103D5000064A11404160042060646F700020A87022
:103D600028700120FEBD0020FEBD000000E800FE1E
:103D7000F0B50668059C7568064F600D38438543AD
:103D80008805800D110408431843204305437560DE
:103D9000F0BD0000FF63FF03F8B51C4617460E4652
:103DA000054611E0601C0FD0002C05D0FDF75EFE2B
:103DB0000699401AA04207D920204035687000209B
:103DC000A87028700320F8BD2868816930468843B0
:103DD00004D00020B842E5D00020F8BD0120F9E76A
:103DE000F7B5002720260546044640352AE0204640
:103DF000029A0199FFF782FF002801D00120FEBD41
:103E000020688069C04380060BD42068C6612068A2
:103E10004168104A1140416067646E70AF702F7046
:103E2000ECE70198002806D0FDF720FE0299411A20
:103E30000198814206D9606C304360646E702F70C7
:103E40000320FEBD20688069C0434007CFD4002016
:103E5000FEBD000000E800FE70B516460D460446A3
:103E60001AE0324629462046FFF748FF002801D0D5
:103E7000012070BD002D04D0FDF7F8FD801BA84285
:103E80000AD9616C202001436164403460700020D5
:103E9000A0702070032070BD20688069C043800638
:103EA000DFD4002070BD70B516460D4604461CE0F8
:103EB000324629462046FFF721FF002801D0012085
:103EC00070BD681C11D0002D04D0FDF7CFFD801B04
:103ED000A8420AD9616C20200143616440346070BB
:103EE0000020A0702070032070BD20688069C0434E
:103EF0008007DDD4002070BD0FB5094A83B0516B37
:103F0000CB0704D0890602D4012007B000BD04A964
:103F1000009169460871107C02F097F8F5E70000FF
:103F200000010020F8B5174605460A461948069CC8
:103F3000089E0799447183711C0AC4711C0C047299
:103F40001B0E437281720B0AC3720B0C0373090EB2
:103F50004173D4B2C4731048FCF791FE39460E4841
:103F6000FCF79DFE10220B490B48FCF7A1FE2246F0
:103F700029460948FCF79CFE0749C81FFD38FCF795
:103F8000E9FD064C601CFCF731F92178000208437A
:103F90003060F8BD68010020BC090020B80800208E
:103FA000F8B50E46050017467ED028680028FBD0DD
:103FB00068680028F8D0A8680028F5D0104602F0FC
:103FC00083FE002871D0764C0021E665A565224667
:103FD00027741932117061746163E17501262676C8
:103FE000E174216561650B216A46117038466946A6
:103FF00002F059FE002800D00120207508216846F3
:1040000001706946207C02F04EFE664D0521287045
:10401000684601706946207C02F045FE68700C21FC
:10402000684601706946207C02F03DFEE8600D2183
:10403000684601706946207C02F035FE28610E2139
:10404000684601706946207C02F02DFE68610F21F0
:10405000684601706946207C02F025FEA8611021A7
:10406000684601706946207C02F01DFEE86113215C
:10407000684601706946207C02F015FE2F46203705
:1040800078701421684601706946207C02F00BFEAE
:1040900068621521684601706946207C02F003FEC3
:1040A00038721A21684601E075E076E001706946D1
:1040B000207C02F0F8FD38731B21684601706946C8
:1040C000207C02F0F0FD78731C216846017069467F
:1040D000207C02F0E8FD28631D21684601706946D6
:1040E000207C02F0E0FD68630021207C02F0E5FD09
:1040F0003E700A2206216A602846297238384260DA
:104100000172E968C1602969016169694161A96950
:104110008161E969C1612030067002F047FE2846DE
:104120002149383004F08EFC28462049383004F00C
:10413000F1FC28461E49683004F084FC28461D49DD
:104140007C3004F07FFC28461B49903004F07AFC58
:1041500028461A49CC3004F075FC04F061FC206359
:10416000284617494C3001601649816016490161A3
:10417000164941601649174DC160A9688847E8692A
:10418000804706F007F8A674304604F063FB686BBE
:1041900080470020F8BD0320F8BD0A20F8BD0000CC
:1041A0000001002090070020E94E000810270000C1
:1041B0005558000869570008C9570008B14E000853
:1041C0005D5600081D510008AD5500082D57000828
:1041D0000D5600085CA20008F8B504461D461746B7
:1041E0000E460D48FCF74BFD39460B48FCF757FDD2
:1041F000F2B221460848FCF75BFD0749C81FFD38AD
:10420000FCF7A8FC054C601CFBF7F0FF21780002CE
:1042100008432860F8BD0000BC090020B808002051
:10422000FFB585B00F46044607ADF02200211D48BA
:104230000E9E05F0F5FD1B4A1021204605F054F8AE
:1042400010220021684605F0EBFD0121684601704F
:10425000062239466C46401C05F0CAFD022229465A
:10426000E01D05F0C5FD0F4A6846089905F012F8F3
:1042700010220021684605F0D3FD02216846017036
:1042800006223946601C05F0B3FD02222946E01DD6
:1042900005F0AEFD034A3146684604F0FBFF09B065
:1042A000F0BD0000C8080020F8B517460E460546C8
:1042B0001C46F02200210B4805F0B2FD094A1021EE
:1042C000384605F011F8074A2146284604F0E2FF77
:1042D000102E06D321462846024A1031103004F031
:1042E000D9FFF8BDC8080020F0B5044687B0022009
:1042F0000490002006460190002C7AD04348416B80
:10430000CA0701D1C80602D5012007B0F0BD0020C0
:1043100069460872014614223D4805F081FD3C497A
:10432000012048702178002904D001290BD00329ED
:104330002AD11BE035496A460873117A0126C9065D
:10434000C90E403109E0314901264873E27B0A7306
:104350006A46117AC906C90E80311172217901911C
:10436000A16800910E25A78965570DE027496A4687
:104370000873117AE02211436A46117261680126BE
:1043800000910A252789655701206946087521484B
:104390000690007B88751D4805A9007C02F083FC0F
:1043A000A84200D3054668B2002E1FD0174D2979C8
:1043B000002910D16946087306980422007B88738F
:1043C00003A9287C02F0E7FC002812D011496846B6
:1043D000007B203948703B4602A8009A019904F0FE
:1043E00093F90490002806D00020687104988CE7A7
:1043F000FFE7032089E7064821780170034801227E
:104400001930017811430170F0E70000000100202D
:104410008808002078070020F8B500250446002809
:1044200018D03749277835480E463836027C3B008D
:1044300004F014FF1E121417191B1E202325272910
:104440002E37353E424446484A4C4E5250545658F8
:104450005A5C5E600320F8BD407C00E0C0782071AB
:1044600049E00079FBE7806C00E0C06C606042E0EE
:104470002448FBE723481030F8E7807CEFE7C07C56
:10448000EDE719200EE01E493C39086E496E03E045
:104490001B4944318869C969A16060602BE017201D
:1044A00000E0162069460870104602F0FCFBDDE7CC
:1044B000134820300078D2E7C868D7E70869D5E705
:1044C0004869D3E78869D1E7C869CFE77078C6E75C
:1044D0004878C4E73078C2E70878C0E7406AC5E7A3
:1044E000806AC3E7006AC1E74868BFE7087AB6E7B1
:1044F000486BBBE702252846F8BD000000010020FC
:10450000580700201C050020F0B5002587B00446A0
:10451000002806D07D48818EC90704D0012007B04D
:10452000F0BD0320FBE77A4E22783146203101911D
:10453000764B497B1F7C130004F090FE1E10222551
:10454000282B2E343D43E446586E6A7A8184878A4C
:104550008D90A0BFAFCFD2E4D5DBE1E421794174E7
:10456000002904D0012905D0022903D103E06948BC
:10457000406B8047C7E00021417101F025F9C2E09E
:104580002179C170BFE021790171BCE0616881646B
:10459000B9E06168C164B6E0616800297CD010228E
:1045A0005D4805E06168002976D05B481022103034
:1045B00005F01EFCA7E021798174084604F04AF951
:1045C000A1E02179C1749EE0227A684602754175A6
:1045D000062205A9384602F0DEFB00287BD04C48B5
:1045E000A2683C386168426601668CE0227A6846BF
:1045F00002754175062205A9384602F0CCFB002859
:1046000069D04348A26844306168C26181617AE040
:1046100060680290012002E0606802900020694614
:10462000087302A9384601F007FD002853D06AE05C
:104630002079411E0E294ED80199087063E0606808
:10464000F06060E0606830615DE0606870615AE071
:104650006068B06157E06068F06154E020796946B5
:104660000875052205A9384602F095FB002832D0CE
:104670006846017D26483830417044E0207969461B
:104680000875042205A9384602F085FB002822D0CF
:104690006846007D707036E01DE020796946087537
:1046A000082205A9384602F076FB002813D0684698
:1046B000017D17483830017025E02079694608757A
:1046C000072205A9384602F066FB002803D0684699
:1046D000007D307017E0032515E06168416212E04B
:1046E000616881620FE00A4861683830416071603A
:1046F00009E00748217938300172317203E06068BF
:10470000706300E00225284609E700000001002050
:10471000580700205CA200081C050020F0B50446E4
:10472000022085B00090002C36D04748808EC0070C
:1047300018D10C220021454805F072FB434E0120A0
:104740007070414D207808271935002806D00128BF
:104750005DD0022866D0032850D16BE03A48818EA4
:10476000C90602D5012005B0F0BD6168002913D04B
:10477000A168002910D0E16800290DD0217C002912
:104780000AD06A46117330481E2203A9007C02F049
:1047900002FB002802D00AE00320E4E71F2168465C
:1047A0000174294804A9007C02F07DFA207428785D
:1047B00069463843287020783070234E6068F06373
:1047C000A0683064E0687064207C30760020F0756A
:1047D000087102F0EBFAF07D6946401C088102A9DD
:1047E000307C01F005FC1A49002348701A4619462E
:1047F00001A803F089FF0090002806D0124900208C
:1048000048712878F721084028700098ABE728788D
:104810000022384328702078307011460220FCF7BF
:104820009BFAE8E73070287838432870A08804F0B5
:1048300025F8E0E73070287838432870227BA0887C
:10484000A16804F045F8D6E7000100209C0800208C
:1048500058070020FEB508AF70CF6F4670C700F054
:1048600001F8FEBDFFB50D46002681B01F460124AC
:10487000F0223146294805F0D3FA284A102103983E
:1048800004F032FD26480A9941718771390AC171D5
:10489000390C0172390E41720B9981720B991F4FBD
:1048A000090AC1720B99090C01730B99090E417326
:1048B000203F18E01A48194AC473641C1146A4B278
:1048C000203904F0E7FC00203118019A3B5C525C6F
:1048D000401C5A400C9B80B25A541028F4D3103D0F
:1048E0001036ADB2F6B2102DE4D2002D13D00B4A23
:1048F0000B481146C473203904F0CCFC002008E0BA
:10490000019A3118525C3B5C5A400C9B401C5A5433
:1049100080B2A842F4D305B0F0BD0000C808002062
:1049200078010020F3B52B4887B00E4642786946DF
:104930000A710078284C0876207A617A4018C5B24E
:10494000002E32D000216846017221794172E06A5E
:104950002049039038394A78684602741D4F097817
:104960004174183F397B817420462C30009006AB8F
:1049700001AA02A9207C01F02CFB397B68468175D5
:104980000179417509210175E07C002802D00A20D7
:104990006946087505A9207C02F085F9C0B27070DF
:1049A000A84205D3401B307006E0032009B0F0BDDB
:1049B00030700025257265726846042141562A46EA
:1049C000079804F0ABFB002801D00020EEE7082098
:1049D000ECE70000900700200001002038B50446F5
:1049E0006846054D04700B226946287C02F0D3F915
:1049F000002800D02C7538BD0001002010B5144CE3
:104A000040212046FDF728F8C820FCF7CBFE4021C6
:104A10002046FDF721F8C820FCF7C4FE40212046BF
:104A2000FDF71AF8C820FCF7BDFE40212046FDF72F
:104A300013F8C820FCF7B6FE40212046FDF70CF81D
:104A4000C820FCF7AFFE40212046FDF705F810BD59
:104A500000040050F8B5284D0446E8680E46401C96
:104A6000E8606878002846D104F014FEFEF778FE6E
:104A7000C100081AE121C9004018686120481F4997
:104A80000068FBF716FCFBF779FE05F001FBFBF76E
:104A900033FE07461B480068FBF71AFE0146042058
:104AA000607100203070287B2268401E10702268E0
:104AB00038125070226897702068C170A88A2268E6
:104AC00001121171216848710F4822680088011293
:104AD00091712168C8710D48226800880112117215
:104AE000216848720A482268008801129172216880
:104AF000C8720C202071F8BD500000200000204139
:104B0000A8000020AC000020B0000020B40000206D
:104B1000B8000020EFF3108172B6034A1368034314
:104B200081F3108813607047C8010020EFF31081F3
:104B300072B6034A1368834381F310881360704789
:104B4000C80100200148006870470000C80100202B
:104B5000FF220132811A90420CD009DC08280DD0C6
:104B600008DC012808D0022806D0042802D105E07C
:104B70000F22120207207047052070470620704759
:104B800030B5154887B0C16A01242143C162C16AAA
:104B900021400591C26A02210A43C262C06A0F4DD8
:104BA000084005900022E4212846FCF759FF0194B3
:104BB000E420002400900294694628460394FCF700
:104BC00089FE280100900194694602942846FCF76A
:104BD00081FE07B030BD000000100240000400500C
:104BE00010B5124810490160E121C900416000215F
:104BF00081600161416181610122C161C260016224
:104C0000FCF784FF002800D0FEE700210748FCF7EE
:104C100033FF002800D0FEE700210448FCF751FFD5
:104C2000002800D0FEE710BD005400401002002014
:104C300010B50C480A4901604B21C90141600021AF
:104C40008160C16001618161C1610C2201624261C8
:104C50004162FEF785FB002800D0FEE710BD000092
:104C6000004400405C020020014901204870704768
:104C7000D8000020F0B541788DB000291DD1664CD8
:104C80002378012B02D1A189491CA181417B0129F3
:104C900013D1624EC278314620310D680095E02A6A
:104CA0000DD04A71027B0A718168284605F0A0F890
:104CB000F06801693046203088470DB0F0BD01250D
:104CC0000222002B0ED083681F78544B67705B68FC
:104CD0000B933B0004F0C2FA08253436383B4D52A2
:104CE0007005EAE7037B042BE7D180680378012B8A
:104CF000E3D14378012BE0D18378012BDDD1C0785B
:104D00000128DAD10020B070E0234B710A71A08134
:104D1000A073E07320742570657068460270057199
:104D200008E00020A081207008A802700B98417A4A
:104D300008A80171FFF7E8FB0020FFF74FFEBCE772
:104D40000A71BAE7B57065E00020B07062E0027BDE
:104D50000A71009B04221A70012206E083680C6825
:104D60009B5C5B1CA354521CD2B20B799342F5D8C6
:104D7000A3E768460570FFF7D1FC9EE70025A581F3
:104D80002570684602750B98417A6846017605A839
:104D9000FFF7BAFB684605702048032110300190E8
:104DA000083002901C483C38039068460174FFF7B5
:104DB000B5FC0420307080E7017B032902D007296D
:104DC0000BD027E069460A70806881784278080233
:104DD000104340BA6946888019E0032269460A7088
:104DE00081688A784B78110219434ABA69468A80E9
:104DF0008268D178137909041B025279194311434F
:104E0000642251430291806869468079087308469C
:104E1000FFF784FC657050E7C8040020D80000202C
:104E200010B501780E4A0123002902D0012914D1BE
:104E300007E04078002801D013700EE002201070C7
:104E40000BE04178002908D106490C78012C04D1E7
:104E50008B73047ACC73407A0874537010BD0000D1
:104E6000D8000020C8040020704700008307FF22FC
:104E7000DB0E9A408907090E994000280BDA0007DB
:104E8000000F0838830808489B001818C36993432B
:104E90000B43C3617047830804489B001B181868C4
:104EA000904308431860704700ED00E000E400E024
:104EB00010B50B4803F078FE0A484179002905D067
:104EC00001218173416B042291434163407C02289C
:104ED00005D104481022193001781143017010BD2A
:104EE0005C08002000010020F8B50027874803F087
:104EF0005BFE874D874C2878C10673D5616B4A06E7
:104F000004D5402291434908490061637F49020763
:104F1000D4310026002A01DBC20711D07B4AC032FF
:104F20005378022B02D04B78022B09D1636B5B08BC
:104F30005B0063632672637B537116710127966071
:104F400062793A43714F503F002A31D1020702D4AF
:104F5000C10703D12CE00A78002A06D03978A27A5A
:104F600091420ED9810712D41DE0E27D8A72497800
:104F7000002903D0217E8A4210D214E06662A67214
:104F80000CE0800703D42672E06A401CE062A6723F
:104F90006078002802D1606A401C6062606B400843
:104FA0004000606304E0EF210840287000F052FCEC
:104FB0002878800717D55548C0300179012903D0DA
:104FC000617B227B91420ED9A673667161780029BC
:104FD00002D1616A491C6162617B4171606B40086A
:104FE000400060634FE0A07B00284CD0A08EC0063C
:104FF00049D4A673607B217B884231D208282FD800
:10500000401C6073C0070DD0202168460170397BB9
:105010003E4F8170703F797841706946207C01F085
:1050200042FE787003F0D6FA002814D037480821E1
:10503000C03041702672616B490849006163667136
:105040000671617B417131497039497881706078AE
:10505000002815D017E02878EF210840287012E0CA
:105060000121207C01F029FE606B40084000606354
:10507000264826726671C0300671617B4171E6E791
:10508000606A401C6062606B810702D50221884320
:10509000606300280DD020491C4803F03BFD1B48ED
:1050A00003F04AFD287880072ED5607C02281DD0A9
:1050B0001EE02878C00708D0A06D01681348C030F2
:1050C000884728784008400028702878000708D5CD
:1050D000A06D81680D48D43088472878F7210840B2
:1050E00028702878EF2108402870DBE700F06CFB7F
:1050F0002878400704D4A06D41680448A830884748
:105100002878F92108402870F8BD0000C807002061
:10511000190100200001002010270000FFB50446FF
:10512000002097B00D4612900146089007460B905C
:10513000FC480F9010300D90002013901190FA4809
:1051400001711838C2811A9A0274F84AD27B4274EB
:10515000C1708170417181600173417381744161DB
:105160000170F348406B8047EF48683803F01CFD3E
:105170002078694608704109281F6E1E149110900E
:1051800001291CD003297DD005297BD007297AD09D
:10519000E54801211838417000F0FAFCE34810227C
:1051A0001930017811430170DF480121C03803F044
:1051B000B1FCDD48C03803F0BFFC1BB0F0BDDB4FD5
:1051C000F878002804D0D84901201839487094E0B4
:1051D000B1B2D84E601C731C7A6CFFF765F8684654
:1051E00000783070109808AB81B230467A6CFEF7C8
:1051F000F3FF70192038427F017F12020A43817F3A
:10520000C07F09041143000608430899884249D128
:10521000C448C44B10300090BA8B711C786CFEF7F8
:10522000FFFF7079317900020843B179C34C09045A
:105230000143B964307AF17900020843717A0904B4
:105240000143B07A00060843F864F17A4806420F39
:10525000B94809074270090F0172307B0007000F3F
:10526000206101D1012020617D21C90048432061D6
:1052700040186061AF4803A90D3003906846113DA6
:10528000057401E013E075E1387C00F0BAFEA64930
:105290000020143148700120F870A7481830407879
:1052A00060707BE7A04806211430417076E7A17852
:1052B000607809020143E0789C4A000408432179A0
:1052C000090601430691D26C05209142974917D0F7
:1052D0000F6A0CE03A6806998A4207D101211391BE
:1052E000391D0F9110310D917E6A0AE0BF6A002FBF
:1052F000F0D10A218C481838417000F049FC5CE775
:105300008E6A215C6A461170401C0A91235C401C25
:10531000205C02020807000F0830099060191A4348
:105320002038017F0B9B1943437F1B020B43817F76
:10533000C07F09041943000608430B90901B80B2FC
:105340000122D20308A90E90904212D236180120F1
:10535000019600901098029181B22046069B0F9A08
:10536000FEF7E0FD08990B9888421AD101201190B0
:1053700017E000B201223018120480181590019035
:10538000109801220291009281B22046069B0F9A4A
:10539000FEF7C8FD08990B98884202D10120159E9E
:1053A0001190112069460875604805A9007C01F03C
:1053B0007AFC0E99884205D85B480921183841705B
:1053C00046619AE71198002876D05748002118388E
:1053D0004170139A82700A9A534BD206D20F4271CF
:1053E00081600173466151485970C16241721398DE
:1053F00000280CD01846022118380170796AB14291
:1054000003D1002901D0072176E77E620FE01498CE
:10541000052811D04549444800228A711838027085
:10542000896AB14201D10029EDD1404886623E48E7
:10543000007801280ED010E03C483B4A01218171E0
:10544000183A1170806AB042EFD10028EDD00120E7
:105450001290EAE70A98800602D5344900200872C3
:105460000998281A001F002845DD099F09987F1C0C
:10547000E91B091F205CC9B20E912B491839C8706D
:1054800000280A9819D0000707D01A980821C3B23B
:10549000781EC2B2204600F0D1FB0120254D0196B6
:1054A00000900295E019069B0D9A0E99FFF7D2F92C
:1054B0001298002817D04FE05AE0000702D00120D0
:1054C000129049E001211B48009101960290E019D9
:1054D000069B0F9A0E99FFF7BDF91A980021C3B2E7
:1054E00014480E9A0FE01048183885600E99017321
:1054F000012141730CE00A98000706D01A98082190
:10550000C3B22046099A00F099FB1298002823D1D3
:105510000A98800614D50449012008711839887446
:1055200016E000001C050020880800200001002073
:105530005CA200083B0600207807002058070020E6
:105540001749002008711748417B007B814203D92D
:1055500013482C3803F028FB12490222193108782D
:105560001043FB221040129A92001043087015E677
:105570000B21BFE6611C2A460B4804F039FC0848A1
:1055800003211838017000214170074981600673BA
:10559000044802221930017811430170FEE5000031
:1055A00088080020000100203B06002070B5144C44
:1055B000607C022803D01348406B804701E000F074
:1055C00003F911480E4DE27B0146193510261431BE
:1055D0006379002A05D00522002B00D042704A7062
:1055E0000AE00422002B00D042704A70206D03F0C4
:1055F0001DFA616E884202D328783043287070BD4E
:10560000000100205CA200088808002010B5104CA2
:10561000607C022803D00F48406B804701E000F017
:10562000D3F8E07B012811D161790320002901D052
:1056300009494870084914314870607C022805D037
:1056400003481022193001781143017010BD000089
:10565000000100205CA2000888080020FEB503F0CD
:10566000DFF92F4C0546607C022803D02D48406BA3
:10567000804701E000F0A8F8A07800262A4F002813
:105680002CD038467C38216E03F044FA38467C38FA
:1056900003F052FA607C02280ED038466838616EFA
:1056A00003F038FA3846683803F046FA607C02287E
:1056B00002D06079002821D012206946087202A920
:1056C000207C01F0F0FA616E411817482C3803F085
:1056D00021FA15482C3803F02FFA0FE012497E709A
:1056E0000320143148700E4819300178002901D187
:1056F00001210170C9B2102211430170607DA075B3
:10570000694608700195207C01F021FB25656079D0
:10571000002803D17E70A07A401CA072FEBD00005C
:10572000000100205CA200088808002010B50B488A
:10573000407C022803D00A48406B804701E000F01B
:1057400043F8084902204870143148700348102279
:10575000193001781143017010BD000000010020D4
:105760005CA200088808002070B5144803F01CFAF9
:10577000134C0021114DE173607D283528702846B7
:10578000BC384278EA70407B2874E07C6874A97465
:10579000E974607C022802D10A48806B8047074A7E
:1057A000207C68321146403901F0BDFA0348B43814
:1057B000C168A87C01F084FB70BD00000C080020CB
:1057C000000100205CA2000870B5154803F0ECF958
:1057D000134D144C2835607D2E462870F03E706ABB
:1057E00068602846D0382946407B14390874E07C2C
:1057F00068740120E874617C022900D00020084A06
:10580000A874543211462C39207C01F08CFA0028FF
:1058100005D0A87CF16801F053FBE87CE07370BD13
:1058200020080020000100203EB5012468460470D5
:10583000FEF7F2FD002805D16846017904480129E8
:1058400001D004703EBD0321017044703EBD0000D4
:10585000D80000201FB5194803F0A6F9184C1021F4
:10586000606B88436063204619300078000721D5BB
:105870001248A430007800281CD101F097FAE07D8E
:105880006946401C888103A9207C00F0B1FB0B49CC
:10589000A039487000206946087121790246C90183
:1058A0000A4369460A7203460246009002A901A80B
:1058B00000F03EF802F08EFE1FBD0000F807002049
:1058C0000001002010B5034803F06EF9FFF7ACFFAC
:1058D00010BD00009C040020F0B5064600242046C0
:1058E000002E01D0002A1ED10020F0BD355DAF1E74
:1058F0003B0003F0B3FC091614160612140E16062C
:105900001600641C1554E4B2401CC0B2335D13543D
:1059100000E01554401CC0B203E0A41C00E0641C6D
:10592000E4B2641CE4B28C42E0D3F0BD70470000E6
:10593000F0B587B000250F460695914C0C99019261
:1059400065831E1E657100D10021CAB222708D4D83
:105950000178297000780121400908D002283DD043
:10596000042839D007287DD0022007B0F0BD61831C
:10597000681C0822216C04F046FA608B082208306B
:1059800080B260832818E16B04F03DFA608B083028
:1059900060837D48C06980470146A083608B06AB69
:1059A0002954401C80B2090A2954401C6083C1B2AA
:1059B0007448626CFEF710FC608B06992954401CF9
:1059C00080B20A0A2A54401C80B20A0C2A54401C95
:1059D00080B2090E2954CFE001206071E0780028E0
:1059E00062D00121684601733878684AC109684667
:1059F0004173E06A049051786846017511784175E9
:105A000010462030017B684681755D4813462C3076
:105A1000009003A9207C521C00F0DBFA8101387849
:105A2000BF22104008433870A179002904D000211A
:105A3000A1712021084338705248E16C41700A0A74
:105A400082700A0CC270090E017139784171A18C03
:105A50008171090AC171FF30217A0825FF30401891
:105A6000627A00E07FE049490F3904F0C1F9207AF9
:105A7000617A4018C1B22172002E20D0207800280F
:105A80001DD00F2925D8E079002822D03A781009B6
:105A9000521812070001120F10433870394A3B4F59
:105AA000507100201E3F07E007205EE73B5C535526
:105AB0006D1C401CEDB280B28842F7D309E000298A
:105AC00007D0E079002804D0304E21701E3E00201F
:105AD00001902E4A00270F3A1046E7710F38FFF762
